{
  "contractName": "Election",
  "abi": [
    {
      "constant": true,
      "inputs": [
        {
          "internalType": "bytes32",
          "name": "",
          "type": "bytes32"
        }
      ],
      "name": "hasVoted",
      "outputs": [
        {
          "internalType": "bool",
          "name": "",
          "type": "bool"
        }
      ],
      "payable": false,
      "stateMutability": "view",
      "type": "function"
    },
    {
      "constant": true,
      "inputs": [
        {
          "internalType": "bytes32",
          "name": "",
          "type": "bytes32"
        }
      ],
      "name": "voteCount",
      "outputs": [
        {
          "internalType": "uint256",
          "name": "",
          "type": "uint256"
        }
      ],
      "payable": false,
      "stateMutability": "view",
      "type": "function"
    },
    {
      "constant": true,
      "inputs": [
        {
          "internalType": "address",
          "name": "",
          "type": "address"
        }
      ],
      "name": "votedFrom",
      "outputs": [
        {
          "internalType": "uint256",
          "name": "",
          "type": "uint256"
        }
      ],
      "payable": false,
      "stateMutability": "view",
      "type": "function"
    },
    {
      "constant": false,
      "inputs": [
        {
          "internalType": "bytes32",
          "name": "candidateID",
          "type": "bytes32"
        },
        {
          "internalType": "bytes32",
          "name": "voterID",
          "type": "bytes32"
        }
      ],
      "name": "vote",
      "outputs": [],
      "payable": false,
      "stateMutability": "nonpayable",
      "type": "function"
    },
    {
      "constant": true,
      "inputs": [
        {
          "internalType": "bytes32",
          "name": "candidateID",
          "type": "bytes32"
        }
      ],
      "name": "getVotes",
      "outputs": [
        {
          "internalType": "uint256",
          "name": "",
          "type": "uint256"
        }
      ],
      "payable": false,
      "stateMutability": "view",
      "type": "function"
    }
  ],
  "bytecode": "0x608060405234801561001057600080fd5b50610241806100206000396000f3fe608060405234801561001057600080fd5b50600436106100575760003560e01c80631b4613cb1461005c5780634c0511001461008d57806397dacd64146100bc578063eeaaf19d146100e2578063f28bddf614610107575b600080fd5b6100796004803603602081101561007257600080fd5b5035610124565b604080519115158252519081900360200190f35b6100aa600480360360208110156100a357600080fd5b5035610139565b60408051918252519081900360200190f35b6100aa600480360360208110156100d257600080fd5b50356001600160a01b031661014b565b610105600480360360408110156100f857600080fd5b508035906020013561015d565b005b6100aa6004803603602081101561011d57600080fd5b50356101fa565b60016020526000908152604090205460ff1681565b60009081526020819052604090205490565b60026020526000908152604090205481565b60008181526001602052604090205460ff16156101ba576040805162461bcd60e51b8152602060048201526016602482015275165bdd481a185d9948185b1c9958591e481d9bdd195960521b604482015290519081900360640190fd5b60009182526020828152604080842080546001908101909155928452828252808420805460ff191684179055338452600290915290912080549091019055565b6000602081905290815260409020548156fea265627a7a7231582007ee470f0958de23f6d03d0387ae9a6bed71b0412830b9def7b7b7482d38cbfb64736f6c63430005100032",
  "source": "pragma solidity >=0.4.21 <0.7.0;\n\ncontract Election {\n  mapping(bytes32 => uint) public voteCount;\n  mapping(bytes32 => bool) public hasVoted;\n  mapping(address => uint) public votedFrom;\n\n  function vote(bytes32 candidateID, bytes32 voterID) public {\n    require(!(hasVoted[voterID]), \"You have already voted\");\n\n    voteCount[candidateID] += 1;\n\n    hasVoted[voterID] = true;\n\n    votedFrom[msg.sender] += 1;\n  }\n\n  function getVotes(bytes32 candidateID) public view returns(uint){\n    return voteCount[candidateID];\n  }\n}",
  "sourcePath": "/Users/servify/Desktop/pc/EVotingBlockchain/contracts/Election.sol",
  "compiler": {
    "name": "solc",
    "version": "0.5.16+commit.9c3226ce.Emscripten.clang"
  },
  "schemaVersion": "3.0.23",
  "updatedAt": "2020-03-08T07:35:10.032Z",
  "networkType": "ethereum",
  "devdoc": {
    "methods": {}
  },
  "userdoc": {
    "methods": {}
  }
}